:020000040020DA
:10000000943E002091022000D10220008D022000A9
:100010008D0220008D0220008D02200000000000D3
:100020000000000000000000000000008D02200021
:100030008D022000000000008D022000612B2000B6
:1000400055302000493020003D3020003130200064
:1000500000000000FD2C2000092D20008D02200052
:100060008D022000000000000000000000000000E1
:1000700000000000000000008D02200000000000D1
:1000800000000000000000008D0220008D02200012
:100090008D0220008D0220008D0220008D022000A4
:1000A0008D0220008D0220008D0220008D02200094
:1000B0008D0220008D0220008D0220008D02200084
:1000C0008D0220008D0220008D0220008D02200074
:1000D0008D02200000000000000000000000000071
:1000E0000000000000000000000000000000000010
:1000F0000000000000000000F53820000539200055
:1001000000000000000000000000000000000000EF
:1001100000000000000000000000000000000000DF
:1001200000000000000000000000000000000000CF
:1001300000000000000000000000000000000000BF
:1001400000000000000000000000000000000000AF
:10015000000000000000000000000000000000009F
:10016000000000000000000000000000000000008F
:10017000000000000000000000000000000000007F
:10018000000000000000000000000000000000006F
:10019000000000000000000000000000000000005F
:1001A000000000000000000000000000000000004F
:1001B000000000000000000000000000000000003F
:1001C000000000000000000000000000000000002F
:1001D000000000000000000000000000000000001F
:1001E000000000000000000000000000000000000F
:1001F00000000000000000000000000000000000FF
:1002000000000000000000000000000000000000EE
:1002100000000000000000000000000000000000DE
:1002200000000000000000000000000000000000CE
:1002300000000000000000000000000000000000BE
:1002400000000000000000000000000000000000AE
:10025000000000000000000000000000000000009E
:10026000000000000000000000000000000000008E
:100270008D022000D9352000A93520002931200029
:100280008D022000BD2B20008D022000FEE7C0461D
:1002900010B5094BFF221A600848094A4824E3694F
:1002A0000849121A98470848084AA3690021121AF7
:1002B000984702F055F9FEE7B4200D4040000020B9
:1002C0005C0200204CDF20006002002094360020F9
:1002D00010B5FFF7DDFFFEE70C490B680A2B08D1CC
:1002E0000B4A1368012B04D10A4B186000231360DA
:1002F0000B60CE2805D1064B01221A60034B013A50
:100300001A60024A1368013313607047E402002048
:10031000C0020020CC03002070B50288054622B13F
:1003200040F266339A421DD109E011484FF4C07182
:1003300004F018FA40F266332B80012016E00C48D6
:1003400004F03AF908B9013010E0094804F002FA63
:10035000084C002014F8011B02F08EFC064B9C4256
:10036000F7D1E7E74FF000030380032070BDC046DC
:100370009C020020540200205A02002010B503887D
:1003800004461BB1B3F5557F12D108E00B4880211C
:1003900004F0E8F94FF45573238001200CE0084B7A
:1003A0001B788B42F6D11178064803F033FCF1E755
:1003B0004FF000030380032010BDC0468C020020D4
:1003C0008136002094D7200010B50288044622B15F
:1003D00040F241339A421FD10BE01248802104F0D1
:1003E000C1F9114803F07AFB40F241332380012028
:1003F00016E00C4804F0E0F808B9013010E00948B4
:1004000004F0A8F906208021302202F053FE074BA9
:1004100040F30B101860E7E74FF000030380032060
:1004200010BDC046D0030020BBD72000BC02002076
:100430002DE9F047002480460F4692462646254681
:100440000AEB06031AF806205B7803EB02231FFA77
:1004500083F9B9F1000F0BD1002D0EDB05F1010579
:100460001DD108EB0400391B104A03F013FC14E003
:10047000002D02DD4FF0FF3508E03EB108EB04002F
:10048000391B0B4A03F006FC2018C4B208EB040029
:10049000391B084A4B4603F0FDFB2018C4B2023654
:1004A000102ECDD12046BDE8F087C046C9D7200028
:1004B000CAD72000CCD7200010B5042001F0FAFFE5
:1004C00010BDC046012970B514460CD002D30429D2
:1004D00044D10FE022484FF4807104F0F1FA214B2F
:1004E00003221A703AE01F4B05221A701E4804F0CE
:1004F00093F933E01D4B1A6092F84E3013B100238C
:1005000082F84E30201D0CF09DFF80B21728A56C9C
:10051000B4F8503001D1012B03D0154803F0DEFAB6
:100520001CE004F11700134904220CF0E9FF10B19C
:10053000114803F0D3FA04F10E00104904220CF024
:10054000DFFF58B92B78312B03D1013001F0BCFF0C
:1005500004E0302B02D1012001F0ACFF70BDC04699
:10056000700200204826002060000020B802002011
:10057000CFD7200088D82000F5D7200006D820004B
:1005800010B5012006F00AFD30B107F0A5F8802172
:100590000022142307F0DAFB10BDC0462DE9F04716
:1005A000078898B08246884691462FB140F21633AC
:1005B0009F4240F095829EE09A4A9B4E13689B4969
:1005C00023F005031360384602F04EFB984803F011
:1005D00085FAD422394630460CF0F0FE06F12005AB
:1005E0000A22944930460CF03DFE062292492846E4
:1005F0000CF038FE0522914906F140000CF032FE65
:1006000006228F4906F160000CF02CFE8D4B1C6811
:1006100020460CF017FF2146024606F180000CF040
:1006200021FE2B2386F8C03040F25B73A6F8D03051
:100630004FF42073C6F8C830834A03F54863C6F800
:10064000CC30009513784021019353787F48029372
:10065000937806F1C0040393537904939379059337
:10066000D3797B4A0693334603F014FB3F280146B7
:1006700001D9784809E040217748784A234603F0B9
:1006800009FB3F28014608D97548402203F0C2FA09
:10069000744B6FF001021A7019E040217248734ADE
:1006A00006F1600303F0F6FA3F2801466D4C07D9C6
:1006B0006F48402203F0AEFA6FF00103237006E0AA
:1006C0006C4B27701F806C48394604F04BF86B4A1E
:1006D0004FF000636A4813606A4907F017FB6A48E5
:1006E000514BD3F8CC1004F03DF840F21633AAF881
:1006F00000300120F8E1654B187881420AD1644B43
:100700009A4207D157490B78FF2B03D1614B012245
:100710001A700A70B8F1880F02D1574B994501E061
:10072000B8F1820F06D0804540F0CE81584B9945F4
:1007300040F0CA814B4D2B78032B00F0C18003D8C9
:10074000012B37D05FD808E0052B00F08981C0F07D
:10075000C580FE2B40F0A781A1E12023324C4E49F9
:100760003A4A00934D484E4B01F072FE20460CF081
:1007700069FE3049024620460CF07EFE78B194F8BE
:10078000403033B9474803F0A9F94FF0FF332B70DD
:1007900091E14248444904F1400201F043FD3F4BDE
:1007A00000225A753B4B01321A702E4B3F481A708B
:1007B00003F094F9012006F0F1FB0446B8B1354B83
:1007C0003B48197803F026FAFFF7DAFE164A0323AE
:1007D000D2F8C81031484B4302F180019BB2B2F805
:1007E000D02001F0ADFD1F4B02221A7008E004205A
:1007F00001F06AFE2F4810212F4A234603F08CFE99
:100800001D48202159E1042001F05EFE2021002333
:100810002848294A03F080FE1E4B2848197803F027
:10082000F9F948E100940D40F8020020D9022000B7
:100830000BD820001DD8200028D820002FD8200059
:1008400035D820009CD520008C3600208A26002038
:100850003CD820005DD820004926002077D8200011
:100860008DD820004826002008260020A7D8200088
:10087000BDD82000502000207802002088020020EF
:10088000AC020020810B2000E80200207736002017
:10089000A0D520008926002060000020E003002071
:1008A000C5042000D7D82000FBD820000AD920009A
:1008B0000FD92000C4020020B90420002FD9200045
:1008C0008B480CF0BFFD8B49024689480CF0D4FDE3
:1008D00020B9894803F002F904232B70874804F0FB
:1008E000DBF810B1864B00221A70864890F86A60D7
:1008F000002E40F0AD8090F86030082B40F0A880CA
:1009000090F87432002B00F0A3807F4C2378032BE7
:1009100007D1334631467D4A01F0E2FC04232370BF
:1009200091E0042001F0D0FD80217948794A3346D6
:1009300003F0F2FD784A79481388794F0133138028
:10094000784B38600093784B784A1B684FF40071FD
:100950000193774B03F09EF9021E02DBB2F5007F94
:1009600003DB74484FF4007120E03B6808AC9B182F
:100970003B603146C2F50075204640220CF01EFD5A
:1009800006F0AAFE402102462046FFF751FD6A4BC1
:100990006A4A1B68294600933868234603F07AF9AF
:1009A000021E01DBAA4204DB6248294603F032F949
:1009B00049E03868624B8018AC1A3860614A2146B9
:1009C0001B6803F067F9021E2EDBA2422CDA544E9C
:1009D000A51A34685C4BA41801205B683460984702
:1009E0005A4A03462946204603F054F9021EDBDB2F
:1009F000AA42D9DA3068564B8018AC1A3060554A92
:100A000021461B6803F046F9021E0DDBA2420BDAF9
:100A10003068A41A801830604F4A214603F03AF932
:100A2000021E01DBA24202DB42482146BEE73B48F0
:100A30000CF008FD00210090484A3248374B0191E4
:100A4000029101F00FFC2A4B4548D3F8C81034E05E
:100A50002C4B324693F86010424803F0DBF82AE052
:100A6000414803F03BF8274800F0BEF8244A3F48CD
:100A700013780133D9B2022996BF4FF480734FF433
:100A8000006403FA01F41170224603F0C3F83448FD
:100A9000214603F067FE1C4B01221A700FE0344818
:100AA00003F01CF80BE0042001F00EFD297831481A
:100AB00003F0B0F803E02A48402103F053FE204B36
:100AC0002D48196803F0A6F8B8F1880F7FF40DAE31
:100AD0002A4B99457FF409AEFFF752FD4846FFE5E2
:100AE0004FF000030380032018B0BDE8F087C04634
:100AF000F80200201DD8200040D9200070020020FC
:100B000089260020E00300204826002049260020F6
:100B1000C4020020B904200050200020CA26002072
:100B2000400B0020A8D92000BC02002067D920007B
:100B300090D92000AFD9200088020020D8D9200009
:100B4000CC030020F4D9200010D72000FFD92000CA
:100B5000B40200200ADA200016DA2000082600205D
:100B60007802002018DA20003DDA20004ADA20005E
:100B700071DA200084DA2000A0DA2000E8020020E8
:100B800010B5044606F0A8FD1022014620460CF0E0
:100B900039FB18B904F004F9014B186010BDC046C8
:100BA0008802002000230B7002F07F0C0B78D20922
:100BB00018BF4CF0800C00F803C00B780133DBB297
:100BC0000B700AB1042BEFD97047C04610B5436EC5
:100BD00004469847034BE06E1978002203F0F4FDB9
:100BE00010BDC0467636002010B590F86030024641
:100BF000082B07D1013380F86030034B0348197884
:100C000003F0E2FD10BDC046D12800208000002086
:100C100010B500214FF4067204460CF0CFFB0123FF
:100C2000A37310BD70B54FF0010300250446A0F872
:100C30006830A0F89C5280F8385000F59560FFF7B6
:100C4000E7FF84F8745270BD30B5052385B080F895
:100C500060300446FFF7E6FF0E4A04F5E4650292B1
:100C60000D4A0C3504F17403039204F528720093C5
:100C700021464FF4007306322846019308F034F8F9
:100C8000284604F5E361B4F8282708F007F805B012
:100C900030BDC046C90C20005510200010B50421FD
:100CA000044600F5D862FFF791FF94F80E37012B48
:100CB00002D1013B84F80E37B4F812371BB904F5A2
:100CC0009560FFF7A5FF10BD2DE9F3470C4692464E
:100CD0001F46002B00F0778191F8B0341BB101F56D
:100CE0009560FFF795FF94F8B1340BB100260CE046
:100CF0009AF8003084F8B134D4F8AC340133012FC1
:100D0000C4F8AC3440F25F81012694F8B73463BB79
:100D10000AEB0600BE4280F05681D4F8AC2494F869
:100D2000B83401320133052A0578C4F8AC2484F8BC
:100D3000B83405D9204680210022FFF747FF42E161
:100D400094F8B624B4F8B21405F07F0302FB031341
:100D50000136D201013015F0800FA4F8B23484F8C6
:100D6000B624D7D1012384F8B734B4F8B224B2F54D
:100D7000007F40F29E8094F8B13403F0F003302BF2
:100D800000F09780D4F8AC340132FB189342C4F8D9
:100D9000AC34C0F0188113E103F0F003302B5CD1C8
:100DA00094F8BF36002B58D194F8BE36B3B91AF870
:100DB000063001361A020131BE42A4F8BA26C4F840
:100DC000AC144AD21AF8063001361343A4F8BA36E6
:100DD0004B1CC4F8AC34012384F8BE3694F8BE86AC
:100DE000B8F1010F39D194F8BF96B9F1000F34D1A1
:100DF000B4F8BC06B4F8BA36BA1B1B1A9A4228BF1C
:100E00001A4600F5D86095B2201804302A460AEB3D
:100E100006010CF027FAD4F8AC34B4F8BA265B1902
:100E2000C4F8AC34B4F8BC36EB189BB29A42A4F8C0
:100E3000BC360ED19BB2E31883F8C496B4F8B23432
:100E400084F8BF86023B9B1A9BB2A4F81037A4F823
:100E500012370123761984F80E3794F8B904BD1BB4
:100E6000C0F5007300F597609D4228BF1D4620180D
:100E70000AEB060102302A460CF0F4F9D4F8AC343F
:100E800076195B19C4F8AC3494F8B934EB1884F8CB
:100E9000B934002301E00133DBB2AB42FBD3BE42E5
:100EA00007D3B4F8B234D4F8AC2401339A42C0F07A
:100EB0008A80B4F8B234D4F8AC140133994294F86F
:100EC000B134FFF469AF03F0F003502B73D006DCAC
:100ED000302B2BD0402B3AD0202B71D10AE0702B35
:100EE00069D002DC602B6BD165E0902B3DD0B02B3C
:100EF00066D14FE094F8BB3433B104F596622046D6
:100F000082210B32FFF762FEE18A012384F89932D5
:100F100004F11800C9012D4A234603F0FDFA082305
:100F2000002184F8603020460A4647E004F59663C5
:100F30000A33C4F8083794F8B9342046A4F80C37BB
:100F40004FF00003A4F81237FFF7A8FE38E00123A2
:100F500084F8993294F8BA2494F8BB34204643EAD2
:100F60000223A4F8B434052121E0012394F8BA2423
:100F700084F8993294F8BB34204643EA022394F86B
:100F8000BC24ADF804308DF80620A4F8B434022156
:100F900001AA13E0012384F8993294F8BA2494F852
:100FA000BB34204643EA0223A4F8B434032104F5F9
:100FB0009662043202E0204684210022FFF706FEFA
:100FC000012384F8B0340020BDE8FC87D10F200055
:100FD00010B590F8383002468BB100F5E464022376
:100FE0000C3480F86030204607F0BAFC204607F049
:100FF00041FE2046002134220CF0E0F904E0034BCE
:101000000348197803F0E0FB10BDC046CA28002051
:101010008000002070B5054600F17403002605F538
:10102000E4640367314624220C3480F86A6000F5DA
:101030001E700CF0C3F9204607F092FC204607F022
:1010400019FE2046314634220CF0B8F9032385F806
:10105000603070BD13B5D3B20C468DF80720042B59
:101060003BD8DFE803F0200303032D001B4B22468F
:1010700019781B4803F0A8FB032384F8603004F1BF
:10108000180003F01BFA012120460DF10702FFF7BB
:101090009DFD2046FFF7BEFF637D012B1DD120463D
:1010A000FFF7D2FD19E0062381F86030012381F8B3
:1010B00074320C4B22461978094803F085FB0CE08A
:1010C000B1F84E372BB9013381F8743201F1740352
:1010D0000B6704F1180003F005FA1CBDD2280020AC
:1010E00080000020CD28002010B5026F00F17401AF
:1010F0008A4203D1012380F8743208E0002380F88B
:10110000743200F5E4600C30521A07F035FC10BD63
:1011100010B58C46016F00F51D73994203D1FFF79E
:10112000E3FF012005E081F800C0036F013303678E
:10113000002010BD70B505461646D0F8A022006FFD
:1011400005F51D731B1AB41A9C4228BF1C46A4B295
:10115000891822460CF086F8D5F8A0222B6F1219B8
:101160001B199642C5F8A0222B6704D10023C5F8AD
:10117000A032184605E02846FFF7B6FFD5F8A032A2
:10118000F01A70BDF7B58DF80710018840F2A7433B
:1011900099420746164600F0268308D8253B994217
:1011A0001ED01733994259D0B9B101F007B840F2B7
:1011B000C643994200F04A8404D80D3B994240F05E
:1011C000FD879EE340F2D343994200F07385B1F569
:1011D0009C6F40F0F38700F09EBE40F2824239E0FF
:1011E000B54A9DF807301278934207D1B34A0A23D3
:1011F000166086F860301068FFF70CFFB04A9DF863
:1012000007301278934204D1AC4B30461E60FFF792
:101210001BFDAC4A9DF807301278934240F0C38220
:10122000A64B1E60B6F8A422A6F854271A6892F8B6
:101230007432012B40F0B7824FF00003A2F89C32C9
:101240001FE0A14B00221868A04B197803F0BCFAEC
:1012500040F299423A80012000F0B4BF964B9DF8CD
:1012600007101B788B4200F05C86994B1B788B42F1
:1012700007D8984B1B788B4203D3934B186803F025
:10128000A3FA8E4B1C68B4F89C22B2F5D17F00F013
:101290007A8136D8B2F5CD7F00F0F18016D840F2D1
:1012A00097139A4200F0B88006D8002A66D0B2F5AB
:1012B000CA7F40F074829EE0B2F5CC7F00F0BF8020
:1012C00040F299139A4240F06A82C8E040F29D13BE
:1012D0009A4200F0178108D8023B9A4200F0E08061
:1012E000B2F5CE7F40F05B82FCE040F29F139A4261
:1012F00000F02981C0F01781B2F5D07F40F04F8215
:1013000031E140F2B3139A4200F0BC8119D80C3B92
:101310009A4200F06E8108D8B2F5D27F00F0488181
:10132000023B9A4240F03B8252E140F2A9139A42BA
:1013300000F08181C0F06F8102339A4240F02F8229
:101340008AE1B2F5DD7F00F0D48109D8B2F5DA7F09
:1013500000F0A88140F2B7139A4240F02082B2E137
:10136000B2F5DF7F00F0E681B2F5E57F00F00282A2
:1013700040F2BB139A4240F01282CAE1102384F873
:1013800078320C23C4F87C32238A03B1023303F190
:101390000C02B4F85430C4F87C2203B102339A181A
:1013A000B4F85C30C4F87C2203B102339A18B4F864
:1013B0004030C4F87C2203B102339B18B4F84820B3
:1013C000C4F87C3202B10232D218C4F87C2204F58F
:1013D000207004F52171FFF7E5FB94F88432042BAB
:1013E0000ED9204681210022FFF7F0FBD7E14FF410
:1013F000CA72A4F89C2294F87432002B00F0E386A1
:10140000204694F87812FFF783FE0028EFD108E019
:1014100040F29713A4F89C3294F87432002B00F039
:10142000D286204604F5207194F88422FFF782FECC
:101430000028EDD108E04FF4CC72A4F89C2294F877
:101440007432002B00F0BF8620460021FFF760FEBB
:101450000028F0D108E040F29913A4F89C3294F8E7
:101460007432002B00F0AF8620460621FFF750FEB5
:101470000028F0D108E04FF4CD72A4F89C2294F833
:101480007432002B00F09F86204613490622FFF796
:1014900051FE0028EFD108E040F29B13A4F89C32E3
:1014A00094F87432002B00F08E8620460321FFF75B
:1014B0002FFE0028F0D11AE0D2280020440B002093
:1014C000D5280020CD280020200C0020D028002086
:1014D000CB280020CC28002011DB20004FF4CE7256
:1014E000A4F89C2294F87432002B00F06C862046FD
:1014F000217DFFF70DFE0028F0D108E040F29D139A
:10150000A4F89C3294F87432002B00F05C86E18AD7
:101510002046090AFFF7FCFD0028EFD108E04FF450
:10152000CF72A4F89C2294F87432002B00F04B8602
:101530002046A17DFFF7ECFD0028F0D108E040F245
:101540009F13A4F89C3294F87432002B00F03B8671
:1015500020460021FFF7DCFD0028F0D108E04FF421
:10156000D072A4F89C2294F87432002B00F02B86E1
:101570002046217CFFF7CCFD0028F0D108E04FF495
:10158000D173A4F89C3294F87432002B00F01B86BF
:101590002046E168228AFFF7CDFD0028EFD1237DA8
:1015A00013F0040F09D164E04FF4D272A4F89C2226
:1015B00094F87432002B00F0068620460021FFF7D5
:1015C000A7FD0028F0D108E040F2A513A4F89C3252
:1015D00094F87432002B00F0F685204694F8401001
:1015E000FFF796FD0028EFD108E040F2A712A4F81B
:1015F0009C2294F87432002B00F0E5852046E16BC4
:10160000B4F84020FFF796FD0028EED108E04FF433
:10161000D473A4F89C3294F87432002B00F0D38574
:1016200020460021FFF774FD0028F0D108E040F2C9
:10163000A912A4F89C2294F87432002B00F0C38500
:10164000204694F84810FFF763FD0028EFD108E02A
:1016500040F2AB13A4F89C3294F87432002B00F0E3
:10166000B2852046616CB4F84820FFF763FD00287E
:10167000EED194F91430002B32DA08E040F2B312C4
:10168000A4F89C2294F87432002B00F09C8520462C
:101690000021FFF73DFD0028F0D108E04FF4DA7398
:1016A000A4F89C3294F87432002B00F08C8520460C
:1016B00094F85410FFF72CFD0028EFD108E040F219
:1016C000B712A4F89C2294F87432002B00F07B85AA
:1016D0002046216DB4F85420FFF72CFD0028EED1F0
:1016E000237D13F0400F09D131E04FF4DD73A4F8EE
:1016F0009C3294F87432002B00F06585204600215E
:10170000FFF706FD0028F0D108E040F2BB12A4F874
:101710009C2294F87432002B00F05585204694F8F2
:101720005C10FFF7F5FC0028EFD108E04FF4DF7301
:10173000A4F89C3294F87432002B00F044852046C3
:10174000A16DB4F85C20FFF7F5FC0028EED120462F
:10175000FFF7CAFC072384F86030201D4FF4A06116
:1017600003F0AEF904F59560FFF752FA4FF4E57215
:10177000A4F89C2294F89932012B05D0201D03F087
:101780008BF9002800F01F85201D03F085F910B1AA
:101790002046FFF729FA04F59560FFF739FA4FF074
:1017A0000003A4F89C329F4B9DF807101B789942C8
:1017B00040F086809C4B1E6096F86030092B7FD1EC
:1017C00096F87432012B77D14FF00002A6F89C22D4
:1017D0001CE0964B00221868954B197802F0F4FF34
:1017E00040F2A74394E3934B9DF807101B788B427C
:1017F00000F09783904B1B788B4207D88F4B1B7858
:101800008B4203D3894B186802F0DEFF864B1C68BD
:1018100040F2E513B4F89C229A420DD001D872B17F
:1018200034E0B2F5F37F15D0B2F5F87F2ED126E083
:1018300040F2E513A4F89C3294F874325BB320466E
:10184000E021FFF765FC0028F2D106E04FF4F372C7
:10185000A4F89C2294F87432EBB120460021FFF7E3
:1018600057FC0028F2D12046FFF73EFC201D4FF424
:10187000807103F025F94FF4F873A4F89C3294F8C2
:1018800074321BB9201D03F007F920B14FF000029C
:10189000A4F89C2205E0644B1B6893F860300A2B87
:1018A00097D1614C2068FFF7B5FB206801210DF14D
:1018B0000702FFF78BF903E06148324602F084FF2C
:1018C000604A9DF807301278934240F08880564B6A
:1018D0001E6096F87432012B40F0818096F86030DB
:1018E000082B7CD14FF00003A6F89C321CE04F4B34
:1018F000002218684E4B197802F066FF40F2B94298
:10190000A8E44C4B9DF807101B788B4200F009832C
:10191000494B1B788B4207D8484B1B788B4203D32B
:10192000424B186802F050FF3F4B1C6840F2D22334
:10193000B4F89C229A420ED001D882B144E040F221
:10194000D3239A4216D00B339A423DD12EE040F277
:10195000D223A4F89C3294F87432002B39D020465C
:10196000C021FFF7D5FB0028F1D106E040F2D322D9
:10197000A4F89C2294F874325BB320460021FFF750
:10198000C7FB0028F2D12046FFF7AEFB012384F805
:10199000383004F59560FFF73BF9201D4FF4A06146
:1019A00003F08EF840F2DE23A4F89C3294F8B034B1
:1019B0001BB9201D03F070F858B104F59560FFF7CE
:1019C00027F9002384F838304FF00002A4F89C2255
:1019D00005E0154B1B6893F86030082B87D01A4A36
:1019E0009DF807301278934240F041810E4B1E6003
:1019F00096F87432012B40F03A8196F86030082B4B
:101A000040F035814FF00003A6F89C3231E0074BDF
:101A100000221868064B197802F0D6FE40F2C64242
:101A200018E4C046D1280020440B0020200C0020E0
:101A3000D0280020D2280020CB280020CC2800204D
:101A400080000020CA280020CF280020B54B9DF838
:101A500007101B788B4200F06482B34B1B788B42DB
:101A600007D8B24B1B788B4203D3B14B186802F0F6
:101A7000ABFEB04B1C6840F21623B4F89C529D425A
:101A80007AD00ED8B5F5047F42D001D80DB3EAE084
:101A900040F213239D424CD002339D4240F0E3803C
:101AA0005AE040F21B239D4200F09A8007D8B5F51A
:101AB000067F72D0023B9D4240F0D5807FE0B5F5B5
:101AC000077F00F0A08040F225239D4240F0CB80AC
:101AD000B5E0B4F88C226FF07D03053284F87832DB
:101AE000C4F87C2204F5207004F52171FFF75AF840
:101AF00094F88432042B10D9204681212A46FFF71E
:101B000065F8A4F89C52B2E04FF40473A4F89C3238
:101B100094F87432002B00F05F83204694F878121A
:101B2000FFF7F6FA0028EFD108E040F21322A4F8FC
:101B30009C2294F87432002B00F04E83204604F56A
:101B4000207194F88422FFF7F5FA0028EDD108E01F
:101B500040F21523A4F89C3294F87432002B00F064
:101B60003B8320460021FFF7D3FA0028F0D108E09C
:101B700040F21622A4F89C2294F87432002B00F054
:101B80002B83204694F88612FFF7C2FA0028EFD183
:101B900008E04FF40673A4F89C3294F87432002BDA
:101BA00000F01A83B4F88C122046090AFFF7B0FA45
:101BB0000028EED108E040F21922A4F89C2294F803
:101BC0007432002B00F00883204694F88C12FFF743
:101BD0009FFA0028EFD108E040F21B23A4F89C32C2
:101BE00094F87432002B00F0F7822046D4F8881263
:101BF000B4F88C22FFF79EFA0028EDD108E04FF4EC
:101C00000772A4F89C2294F87432002B00F0E4824E
:101C1000204694F89812FFF77BFA0028EFD120466F
:101C2000FFF762FA201D4FF4A06102F049FF04F5AE
:101C30009560FEF7EDFF40F22523A4F89C3294F85E
:101C40009932012B05D0201D02F026FF002800F05C
:101C5000C382201D02F020FF04F59560FEF7D8FF37
:101C6000002384F86A304FF00002A4F89C22324A24
:101C70009DF807301278934240F029812D4B1E6069
:101C800096F87432012B40F0228196F86030082BD0
:101C900040F01D814FF00003A6F89C321DE0244B5C
:101CA00000221868254B197802F08EFD40F2D342CD
:101CB000FFF7D0BA1B4B9DF807101B788B4200F042
:101CC0003081194B1B788B4207D8184B1B788B42FD
:101CD00003D3174B186802F077FD164B1C68B4F855
:101CE0009C52B5F5157F00F088800FD840F24F2345
:101CF0009D424ED001D86DB3E5E040F251239D42A4
:101D000058D002339D4240F0DE8066E040F2572317
:101D10009D4200F0958013D8013B9D4240F0D38056
:101D20007CE0C046D2280020CB280020CC28002010
:101D3000200C0020440B0020D4280020D0280020B4
:101D400040F259239D4200F08C8009339D4240F0BF
:101D5000BA80A4E0B4F88C226FF05D03043284F8FA
:101D60007832C4F87C2204F5207004F52171FEF766
:101D700019FF94F88432042B10D9204681212A4679
:101D8000FEF724FFA4F89C52A1E040F24F23A4F8F0
:101D90009C3294F87432002B00F02682204694F88E
:101DA0007812FFF7B5F90028EFD108E040F2512290
:101DB000A4F89C2294F87432002B00F0158220467F
:101DC00004F5207194F88422FFF7B4F90028EDD1CE
:101DD00008E040F25323A4F89C3294F87432002BAC
:101DE00000F0028220460021FFF792F90028F0D18E
:101DF00008E04FF41572A4F89C2294F87432002B7A
:101E000000F0F281204694F88612FFF781F900284D
:101E1000EFD108E040F25623A4F89C3294F87432D3
:101E2000002B00F0E181B4F88C122046090AFFF77C
:101E30006FF90028EED108E040F25722A4F89C2266
:101E400094F87432002B00F0CF81204694F88C1265
:101E5000FFF75EF90028EFD108E040F25923A4F81B
:101E60009C3294F87432002B00F0BE812046D4F8E6
:101E70008812B4F88C22FFF75DF90028EDD12046D6
:101E8000FFF732F9201D4FF4A06102F019FE04F5AE
:101E90009560FEF7BDFE40F26222A4F89C2294F801
:101EA0009932012B05D0201D02F0F6FD002800F02C
:101EB0009B81201D02F0F0FD04F59560FEF7A8FE61
:101EC000002384F86A304FF00003A4F89C32B34A30
:101ED0009DF80730127893427FF47FA9B04B1E60C3
:101EE00096F87432012B7FF478A996F86030082BAD
:101EF0007FF473A94FF00002A6F89C2229E0A94BB9
:101F000000221868A84B197802F05EFC4FF49C631D
:101F10003B80FFF7A0B9A54B9DF807101B788B42BB
:101F20000BD19F490A230A68022082F860300B68AF
:101F30004FF00002A3F89C2244E19D4B1B788B429A
:101F400007D89C4B1B788B4203D3964B186802F042
:101F50003BFC934B1C68B4F89C22B2F5267F00F042
:101F600094800FD840F293239A4258D001D812B3EC
:101F70000DE140F295239A4262D002339A4240F03A
:101F8000068170E040F29D239A4200F0B58008D8A7
:101F9000033B9A4200F08A80B2F5277F40F0F78039
:101FA0009AE040F2A2239A4200F0B68011339A429E
:101FB00040F0ED80D8E094F898325B0043F03003B5
:101FC000DAB294F89A3284F87822012B04BF42F0F6
:101FD000010384F87832D4F89432B4F88C220233B6
:101FE0009A1894F89832C4F87C2213B1931CC4F860
:101FF0007C3204F5207004F52171D4F87C22FEF7C0
:10200000D1FD94F88432042B0ED920468121002280
:10201000FEF7DCFDBBE040F29322A4F89C2294F88A
:102020007432002B00F0E880204694F87812FFF715
:102030006FF80028EFD108E040F29523A4F89C3215
:1020400094F87432002B00F0D780204604F52071FC
:1020500094F88422FFF76EF80028EDD108E040F2F2
:102060009722A4F89C2294F87432002B00F0C480CC
:10207000B4F88C122046090AFFF74AF80028EED17E
:1020800008E04FF42673A4F89C3294F87432002BC5
:1020900000F0B280204694F88C12FFF739F800283F
:1020A000EFD108E040F29A22A4F89C2294F874320E
:1020B000002B00F0A1802046D4F88812B4F88C22BE
:1020C000FFF738F80028EDD194F898324BB927E0A3
:1020D0004FF42773A4F89C3294F87432002B00F06C
:1020E0008B8020460021FFF713F80028F0D107E08D
:1020F00040F29D22A4F89C2294F87432002B7BD0ED
:10210000204694F88612FFF703F80028F0D107E084
:1021100040F2A223A4F89C3294F87432002B6BD0C6
:102120002046D4F89012B4F89422FFF703F8002860
:10213000EED12046FEF7D8FF201D4FF4A06102F03B
:10214000BFFC94F898222AB91B4BE06E197802F074
:102150003BFB15E0012A13D104F59560FEF758FD0D
:1021600040F2B322A4F89C2294F89932012B04D0B7
:10217000201D02F091FC00283ED0201D02F08CFCB6
:1021800004F59560FEF744FD002384F86A304FF0B3
:102190000003A4F89C32FFF720B8C046CE280020E8
:1021A000440B0020200C0020D0280020D228002042
:1021B000CB280020CC280020763600204FF00002EB
:1021C0003A800320FEBD104B1B6893F860300A2B49
:1021D0007FF437A8FFF7E7BA0B4B1B6893F8603022
:1021E000082B7FF444AD12E4074B1B6893F8603072
:1021F000082B7FF46CAE52E5034B1B6893F86030FC
:10220000082B7EF4EAAF7AE6440B002010B50446B2
:1022100038B1016021B108460BF014F9A08000E04C
:10222000818010BD70B50546164600F150000C4681
:10223000FFF7ECFF05F158003146FFF7E7FF2B7D74
:1022400024B16FEA43636FEA536301E003F07F0355
:102250002B752B7D16B143F0400301E023F04003C2
:102260002B7570BD2DE9F04104461E4694F8603090
:102270001046082B9DF81C709DF8202001D081206D
:1022800027E094F86A500DB1012022E0012384F880
:102290006A30B4F8683084F89A2202339BB2A4F80A
:1022A0006830A4F88632C4F888020BF0CBF8069B9D
:1022B000A4F88C02C4F89432074BC4F8906284F8F6
:1022C000987284F8995205481978224602F07CFAEF
:1022D0002846BDE8F081C046CE28002080000020BE
:1022E00070B504461E4694F860301046082B01D0A5
:1022F000812020E094F86A500DB101201BE00123F9
:1023000084F86A30B4F86830C4F8882202339BB28B
:10231000A4F86830A4F886320BF094F8064BA4F8C1
:102320008C0284F8986284F89952044819782246FD
:1023300002F04AFA284670BDCF2800208000002015
:102340007FB506461C4696F860300846032B1ED81B
:1023500006F174033367002386F89932337DC6F89B
:10236000141743F00203F482A6F828273375694650
:102370006D4606F5E36406F01FFD95E80F0084E85E
:102380000F00044B04481978324602F01DFA002071
:1023900004B070BDD52800208000002070B51D4D10
:1023A0002C78002C34D102F0E5F91B4B18701B4B34
:1023B000187002F0DFF91A4B187002F0DBF9194BB4
:1023C000187002F0D7F9184B187002F0D3F9174BB8
:1023D000187002F0CFF9164B187002F0CBF9154BBC
:1023E000187002F0C7F9144B187002F0C3F9134BC0
:1023F0001870134B187002F0BDF9124B1870124888
:1024000002F0EEFB1148214602F08AFA01232B70FC
:1024100070BDC046D3280020D5280020CB2800203E
:10242000CD280020D1280020CF280020D42800204B
:10243000CE280020CA28002076360020D22800208E
:10244000CC280020D0280020480B0020800000204D
:102450002DE9F0411E46137804460F461546BDF897
:1024600018800BB9822019E04FF4EC6200210AF0C9
:10247000A5FF294604F10C00FFF7C8FE0123637590
:1024800020466666E766A4F8A482FEF7CBFBFFF75A
:1024900085FF0348214602F0CFFB0020BDE8F08114
:1024A000480B0020024B10B5187000F029F810BD41
:1024B000D628002010B5034B1B7823EA0000FFF755
:1024C000F1FF10BDD628002010B5034B1B78184330
:1024D000FFF7E8FF10BDC046D628002010B500F079
:1024E00007F8024B00221A7010BDC046D628002003
:1024F000024A136843F00F031360704700B40D40A5
:10250000014B18607047C0463CB00D4073B50025C4
:1025100006462C4605E0B4F5C87FD4BF2546C4F571
:1025200048753046FFF7D0FF002302E000BF019B53
:1025300001330193019BAB42F8DB3046FFF7BAFF52
:10254000002302E000BF019B01330193019AC5F50E
:10255000C8739A42F6DB0134B4F5487FDBD17CBD09
:102560002DE9F04186B000F0B3FC00F079FD00F0F9
:10257000F9FC00F081FA01F017FA02F083FA00F09A
:1025800027FDFFF7ABFF0220FFF7C0FF02F0FAF8CC
:1025900000F08AFC00F0F8F909F064FE09F068FF29
:1025A000002000F0B7FB012000F0B4FB4C490020F4
:1025B00000F05AFB02F0E0FA00F0CCFC0420FFF738
:1025C000A5FF484801F08AFA474801F087FA4748D2
:1025D00001F020FB464B0DF10704186801F07EFA6C
:1025E000444801F017FB444B186801F077FA434860
:1025F00001F010FB424B186801F070FA002002F065
:1026000049FB01F085F93F48002102F089F901F00A
:10261000BFFF2046082101F085FA214608223A48EA
:102620009DF80E809DF80D700AF01CFE374801F0F1
:10263000F1FA0024344E3648315D013401F0EAFAF3
:10264000072CF7D1334DF179334801F0E3FAEC6A06
:102650004AF6CD310220A04748EA07210320A047CF
:102660001A210120A0470DF107046B6B21460822B7
:102670000920984706F0D4FD0822314627480AF081
:10268000F1FD06F0A1FF2648002102F049F900F013
:1026900009FD0021234802F043F901F08BFF184B9C
:1026A00001209B6998472049112220460AF0DAFD53
:1026B0001E4801F013FA204607F000FE1C4801F006
:1026C000ABFE00F0F7FB0820FFF720FF00F0F8FB5F
:1026D00002F058F910F0FF0FF8D101F077F9F5E7A3
:1026E0009D4B200025DB200090D9200031DB20000D
:1026F00020D7200038DB200050D720003FDB20000F
:1027000030D72000EC0000208C36002046DB200073
:1027100064DB200058D620009ADA2000402B0020ED
:1027200084010020900000207ADB20006ADB20007A
:1027300088D52000064B01461A78002005E0054B9D
:1027400053F820308B4202D001309042F7DB7047C3
:10275000D7280020A000002070B504880546772CFB
:1027600020D07E2C35D0002C53D102F003F82B4B17
:1027700018702B4B1C6008E02A4B00219954836889
:1027800080209847236801332360254C264B22681C
:1027900053F822000028EFD1244B1A704FF0770332
:1027A0002B801AE0224A002313601D4A25E01D4BAE
:1027B0009B56002B1EDA194B002019781A4B53F840
:1027C000222002F001F850B94FF07E032B80013037
:1027D00023E0124B1B788B4201D001201DE0104BEF
:1027E000104A1968535C03F07F035354104A13686E
:1027F000013313600A4A136801331360084B1A68E7
:102800000A4B1B789A42D2DB094B1B68002BC9D1BB
:10281000C4E74FF000030380032070BD773600202B
:102820004C0B002078360020A0000020D728002084
:10283000500B002010B5FFF77DFF054A135C6FEACF
:1028400043636FEA53631354024801F0E5FF10BD80
:102850007836002090000020D0F82034CA4313407E
:10286000C0F82034D0F800341340C0F80034D0F859
:1028700004341340C0F80434D0F808341340C0F8CE
:102880000834D0F80C340B43C0F80C34D0F81034B2
:102890000B43C0F81034704710B580210848FFF78B
:1028A000DBFF07210422022000F0E8FB022000F0F9
:1028B0002DFB04480221072200F068FB012010BD17
:1028C00000B00D409929200010B540210848FFF7BD
:1028D000C3FF06210422022000F0D0FB022000F0FA
:1028E00015FB04480221062200F050FB012010BD18
:1028F00000B00D409929200010B520210848FFF7AD
:10290000ABFF05210422022000F0B8FB022000F0FA
:10291000FDFA04480221052200F038FB012010BD19
:1029200000B00D409929200010B510210848FFF78C
:1029300093FF04210A46022000F0A0FB022000F0D1
:10294000E5FA04480221042200F020FB012010BD1A
:1029500000B00D409929200010B508210848FFF764
:102960007BFF03210422002000F088FB002000F000
:10297000CDFA04480021032200F008FB012010BD1D
:1029800000900D409929200010B50248002102F066
:1029900097F810BD540B002070B5054610480C4642
:1029A00002F07AF8D8B10E48102102F089F81DB96A
:1029B000032C14D10B4810E0022D10D1042C01D1AE
:1029C00009480AE0052C01D1084806E0062C01D18F
:1029D000074802E0072C02D10648FFF72BFF70BD25
:1029E000540B0020A0D52000C0D52000D0D5200059
:1029F000B0D52000E0D5200001207047802870B5B8
:102A00001ED1104E104D3368002423F08003336034
:102A10002B68204643F080032B600C4B07211C6081
:102A2000224600F02BFB3368204623F0400333603E
:102A30002B68062123F040032B60012200F01EFBCF
:102A4000002070BD20940D4000940D4000920D4078
:102A500010B5084CFF2323604FF4FA6000F048F8EB
:102A600006200021302200F025FB0023236000B265
:102A700010BDC04600920D400E4A0F4B1A600F4A1F
:102A8000136843F005031360136843F002031360F7
:102A90000B4A136843F0010313600A4B00221A60CB
:102AA00004320C3B1A60012204331A600E323433B4
:102AB0001A60704747E8010014E000E010E000E011
:102AC00008200D400C000340034BD3E90023100AFB
:102AD00040EA03607047C04660020020034BD3E920
:102AE0000023D00B40EA43407047C04668020020F4
:102AF000064B074A1860136843F001031360044B48
:102B00001B6813F0010FFAD17047C046280003403C
:102B10000C000340D0B500F03FF80F4B0F4CD3E949
:102B20000067B04239460C4B38BF791C002242EA9C
:102B30000000C3E90001D4E90023921B63EB070303
:102B4000121843EB0103C4E9002301F03FFD08B173
:102B500001F080FDD0BDC046600200206802002068
:102B600010B5FFF7D7FF10BD10B5064C236823F052
:102B700001032360FFF7CEFF236843F001032360C6
:102B800010BDC04610E000E07047C046014B186819
:102B90007047C0465C0B0020074B196804331A6865
:102BA00004331868043300041B6840EA0220084319
:102BB00040EA03607047C04640500D4010B500F039
:102BC00069FF064B00221A60912000F0B7F99120AE
:102BD00000F0A8F901F032FF10BDC0465C0B0020E8
:102BE00010B50446114B1B6813F0010FFAD000F02A
:102BF000B5F9FFF7D1FF231A062BD8BFC41D0C4B24
:102C0000220E1A60C4F30742043B1A60C4F3072281
:102C1000043B1A60043B04F0FF021A6000F09AF9CA
:102C2000044B91201C6000F071F910BD50500D4014
:102C30004C500D405C0B00200849094B1A680B688A
:102C40001A4204D0CB689B6913F0800004D0054B76
:102C50002C319942F1D301207047C04600D62000A4
:102C600028200D4058D6200001289CBF014B43F876
:102C700020107047600B0020012809D8054A2C233A
:102C800003FB0023D868836913F0200FFBD1016098
:102C90007047C04600D62000164A2C2303FB0023B1
:102CA00070B5DC684FF6BF73226C054692B212F025
:102CB0005001636409D10DE00F4B53F825301BB16F
:102CC0002068C0B2984700E02368A36913F0100F92
:102CD000F2D00EE012F4D06F0BD04FF440732363A8
:102CE000FF236360E36AE162E362236B43F0010365
:102CF000236370BD00D62000600B002010B50020BB
:102D0000FFF7CAFF10BDC04610B50120FFF7C4FF92
:102D100010BDC04601282DE9F84F00F2B7802C23E2
:102D200003FB00F45A4D2F1997F920A0BAF1000FB8
:102D3000C0F2AC8097F822604FFA86FBBBF1000F1F
:102D4000C0F2A480534800F017FE53492A590B687B
:102D5000F6B213430B6004310B687A6830461343B4
:102D60000B6004310B68BA6813430B60D7F80C9002
:102D70000023C9F8C83F97F921803A6908EBCA03D4
:102D8000136097F823403A7DE5B2294600F080F9B8
:102D900064B23046012616FA04F406FA08F808224E
:102DA000294600F06BF93D4A4FEA0B339A18136835
:102DB00023431360394A4FEA0A339A18136843EAE7
:102DC000080313605023C9F83830D9F8383043F479
:102DD000D063C9F838300223C9F834304FF4407357
:102DE000C9F83030BB69C9F82430FB69C9F828300C
:102DF0007023C9F82C3097F8244065B2002D17DBFA
:102E000097F82510264B48B240EAC50216FA00F0A2
:102E10001A60224A2B039A18136803431360204652
:102E2000002200F02BF91F4A136843F4004313609B
:102E300097F826604FFA86F8B8F1000F1CDB97F878
:102E40002740F6B2E5B230462946012200F020F9CB
:102E500012494FEA0833591864B20123A3400A68A3
:102E600030461A430A600822294600F007F90D4A45
:102E7000136843F480431360D9F8303043F0010302
:102E8000C9F8303097F8280000F040F8BDE8F88F16
:102E900000D62000392C200028200D4020940D4021
:102EA00004410D4030D00040014B00221A607047B1
:102EB00000500D40014B08221A60704700500D4031
:102EC000024BA0221A6050221A60704700500D4039
:102ED000084A094B1A60094B80321A60084B80324D
:102EE0001A60084B80321A60074B4FF400121A60C8
:102EF0007047C04600E100E0740B0020680B002022
:102F00006C0B0020700B002008ED00E0044B410921
:102F10001A6800F01F000123834042F821307047F7
:102F2000740B0020044B41091A6800F01F000123B4
:102F3000834042F821307047680B0020044B410960
:102F40001A6800F01F000123834042F821307047C7
:102F5000700B0020EFF3108062B67047EFF3108023
:102F600072B67047054A064B1A60064B1A68064B44
:102F700002EA0303B3F1807FF7D170470101020138
:102F800000200D4004200D4000000101024B02EB27
:102F9000C10243F822007047780B00200B4B2DE94B
:102FA000F04107460D4603EB4116002457FA04F39F
:102FB00013F0010FE1B204D056F824300BB12846CB
:102FC00098470134082CF1D1BDE8F081780B00203E
:102FD00010B50021802202480AF0F0F910BDC04669
:102FE000780B00202DE9704F80460F4E4FEA0839CC
:102FF000DFF838B04E4400F04DFDD6F8185459F8BB
:103000000B404FEAC80A24FA0AF4EDB2E4B245EAEA
:10301000040004FA0AF44146FFF7C0FFC6F81C5446
:1030200049F80B40BDE8708F00900D4018970D4097
:1030300010B50320FFF7D6FF10BDC04610B5022023
:10304000FFF7D0FF10BDC04610B50120FFF7CAFF43
:1030500010BDC04610B50020FFF7C4FF10BDC0462C
:10306000034A044B1A60044B803A1A607047C0460A
:1030700080400D40FC0B0020F80B0020034B01EBBF
:10308000C0011B6843F821207047C046FC0B00209C
:10309000034B01EBC0011B6843F821207047C04679
:1030A000F80B0020024A136843F0300313607047A6
:1030B00000700D400E2830B594460BD1154A1568A6
:1030C00045F002031360144A146824F03F0343F0F0
:1030D00001031360114A136823F0FF0340EA03035E
:1030E0000B4343EA0C0313600D4B1B6813F0800F76
:1030F000FAD00C4B196804330E281A6803D1064B1A
:103100001C60044B1D6001F0FC0040EA022000B28C
:1031100030BDC04634000144F486084008700D40BC
:1031200000700D400C700D4010B58F20064CFFF75D
:1031300005FF8F20FFF7F6FE206818B101F06CFB49
:103140000023236010BDC046000C002020B1054ABA
:10315000136843F0010303E0024A136823F00103FC
:1031600013607047008608400848017811F0800F0E
:103170000AD1074AED2313601360E32313606FEA5B
:1031800041636FEA5363037001207047D828002021
:10319000388808400A4B1B6813F0020FFAD1094A1D
:1031A000ED2313601360084B1B680BB1EF23136012
:1031B000064A0120137803F07F0313707047C0465E
:1031C0004C860840388808402C860840D8280020C3
:1031D000A0F10B03DBB20F2B10B5044601D9FF2081
:1031E00014E00B4B1B6813F03F0301D1194602E0BA
:1031F000FFF7D0FF012105236343064A2C3B1360F0
:1032000009B1FFF7B1FF044B20461C7040B210BD5E
:10321000488608403C8608405A02002010B50B4BF7
:103220001B6813F03F0F01D0002202E0FFF79CFF64
:103230000122074B1B6813F0010FFAD0054B1C68E5
:103240000AB1FFF7A7FFC4F3001010BD488608407D
:10325000648608404C860840044B186800F0220041
:10326000202814BF002001207047C0464C8608402B
:10327000024B186800F040007047C0464C8608407A
:1032800070B50D4609B902206BE00D2808D8DFE8BB
:1032900000F0090F1A1C2307304146075E60626583
:1032A00001205EE02F4B1B68003B18BF012356E056
:1032B0002D4B05221B6803F07F030B3B93FBF2F3BE
:1032C0000B33DBB24BE0294B00E0294B1A68043B7F
:1032D0001B6843EA022342E0264B1B6803F001020D
:1032E000254B0A601B6813F020003AD042F002031D
:1032F00035E0224B00221B68D8B2214901EBC20302
:103300001B79834202D851F8323028E001320E2A6C
:10331000F3D120E01B4B1B685BB2493B1FE01A4B0B
:103320001B6813F03F0F01D0002202E0FFF71CFFE3
:103330000122164B1B6813F0010FFAD0144B1C68C6
:103340000AB1FFF727FFA4F149035BB207E00B23A3
:1033500005E01A2303E06FF0170300E007232B605A
:10336000002070BD2C8608403C860840CC85084073
:10337000D4850840008608402486084040860840DE
:1033800090D6200058860840488608406486084049
:103390006086084070B50C46072805D8DFE800F0C5
:1033A00006111E232C044356012058E0012902D1A6
:1033B000FFF7DAFE52E000294ED1FFF7EBFE204680
:1033C0004DE0A1F10B030F2B46D8C8B2FFF700FF69
:1033D00040B2B0F1FF3F41D1043040E08AB202F088
:1033E000FF011F4B03E08AB21E4B02F0FF01196080
:1033F000120A04331A6031E031F003052CD101F0D8
:103400000100FFF7A3FE14F0020006D0164A28467A
:10341000136843F02003136021E0134A136823F07C
:10342000200313601BE011F1180F15DB072913DCD3
:103430000D220E48D10050F832309C4203DC431874
:103440001A790B4BD6E7013AF3D207E001F0FF03FC
:10345000084A4933136001E0022000E0002070BDFB
:10346000C8850840D08508402486084090D62000B2
:103470004086084058860840092801D001200DE008
:10348000082A0AD149B10648002250F804398B5461
:103490000132082AF9D1002000E002207047C0461E
:1034A000C4850840092801D001200CE0082A09D170
:1034B00041B10548013A8B5C013A40F8043BFAD22D
:1034C000002000E002207047A885084070B5314B0D
:1034D00084461B6813F040005BD02F4B1B68DBB2A7
:1034E00013F0800F42D1042B40D9023B8B423DDCCC
:1034F000DDB2032D01D800221DE06C1E0CEB04018F
:10350000032000F0B1F925492401032044EA010118
:1035100000F0B4F9032000F0BBF9032000F0D0F96B
:10352000032000F0D9F90028FAD107E01A4B1B68F4
:103530000CF802300132D3B2AB42F7D3164B196804
:103540001B68DCB214F0800F10D0493949B2042056
:1035500089B205F001FF032004F07F0105F0FCFEB5
:103560000C4A136813F0400F06D111E00C4AED230A
:103570001360002013600CE0136813F0800F03D079
:10358000084801F049F903E0054AED231360136090
:10359000284670BD4C8608402888084002C0010CAF
:1035A00038880840C400002010B5084B1B68042B65
:1035B00004D0074A137843F040031370034B0022F2
:1035C0001A60044801F028F910BDC0462C88084054
:1035D000D8280020C400002010B5034801F01CF9D1
:1035E000024B00221A6010BDC4000020348808403D
:1035F00070B5234B93F90030002B01DA00250CE065
:10360000FFF7CAFA0446FFF7AFFDFFF7C5FA6FF000
:1036100009031B1BC342F8D40125FFF7FFFD002857
:103620002AD0184B1B6813F0200125D1164BE92234
:103630001A600C4604E0631C0620DCB2FFF758FA5F
:10364000104B1B6813F0020F01D1032CF3D10D4B6B
:103650001B6813F0020F05D10B4AEE2313600124FF
:10366000136005E0074B1B6813F00200FAD1044613
:103670001DB1FFF78FFD00E00224204670BDC0465B
:10368000D82800204C8608403888084070B5054688
:103690000C46134B1B6813F0020FFAD1114B93F930
:1036A0000030002B01DBFFF75FFD0F4AEE231360B4
:1036B00013600E4BA21C013C1A602919022000F075
:1036C000CBF80B49240144EA0101022000F0D6F8AE
:1036D000022000F0DDF8022000F0F2F8002070BDBA
:1036E0004C860840D82800203888084028880840A0
:1036F00002C001C010B50C46FFF7C8FF2046FFF717
:1037000077FF10BD2DE9F041294E337813F0010702
:1037100001D000204AE0274B01251D6004331D60C5
:1037200004331D60244BF8221A60092203F5C87384
:103730001A600C32A3F590731A60204B0B221A60AA
:103740001F4A4023136013687F2443F02003136053
:103750001C4BD5221F6048331C60103B1A601A4B6B
:103760001878FFF735FD194A8D20136843F00403DC
:103770001360FFF7CBFB164B8E201C60FFF7C6FBD8
:10378000022000F091F81349022000F06DF80320A8
:1037900000F08AF803200F4900F05EF80E48394621
:1037A00001F0BEF8337828462B433370BDE8F08132
:1037B000D8280020A8200D405886084004600D40FD
:1037C00024860840088608405A0200208C8608405B
:1037D0009486084028880840C400002070B50288FC
:1037E000054622B140F2B9339A422AD103E040F2B1
:1037F000B9332B8001E0822901D0012025E005F0BA
:10380000F1FD05F061FD8021FFF760FE002805DD78
:1038100080B205F053FD0D4B1B6998470C4A137895
:1038200013F0400FE3D0002313700A4B1C68FFF71E
:10383000B1FCFFF767FF14F03F0FD8D0FFF794FCFF
:10384000D5E74FF000030380032070BD30D7200080
:10385000D828002048860840032802D8014B0201DE
:103860009950704700000020032803D8024B03EB57
:10387000001359607047C04600000020032804D898
:103880004300024A013342F8331070470000002021
:10389000032805D80123834002490A6813430B60BB
:1038A0007047C04628F00F40032805D80123834005
:1038B00002490A6813430B607047C04620F00F406E
:1038C000032805D80123834002490A6813430B608B
:1038D0007047C04614F00F40032801D9002006E0CD
:1038E0004300034A013352F8333003F007007047B6
:1038F00000000020024B4FF0FF321A607047C046B4
:1039000004F50F40014B01221A6070474CF00F4044
:1039100010B5094C00214022204609F04FFD074B0D
:1039200001221A6004332E201C60FFF7EFFA2F20CB
:10393000FFF7ECFA10BDC0460000002004F00F4075
:1039400030BF70470A4B1B6813F4801FFAD1094A35
:10395000136823F480331360054B1B6813F4803F16
:10396000FAD1044A136843F4003313607047C04629
:1039700004200D4000200D400A4A1368834210D0F5
:103980000BB91A460AE0536883420AD00BB90122E8
:1039900004E09368834204D01BB90222014B43F830
:1039A00022007047040C0020054B00221A60054AD3
:1039B000136843F004031360034B01221A7070472D
:1039C00058200D4010ED00E0D928002010B52B4BF9
:1039D0001B6813F03F0314D11C4604E0984780B1E4
:1039E00004340C2C43D0264B1B59002BF6D13EE05F
:1039F000FFF7CCF80446FFF7CFF8201A092800D9C2
:103A000014B9FFF79DFF37E01E4A136823F4003313
:103A100013601D4B1B6813F4801FFAD1194A1368F9
:103A200043F480331360184B1B6813F4803FFAD0C3
:103A3000FFF7B2F8201A092802D8FFF783FF1BE02E
:103A4000632803D9114B1A78022A00D00122104BA7
:103A50001A6000F0AFFE10B9FFF798F828B9FFF729
:103A600071FF0B4B00221A6006E030BF04E0074BE9
:103A70001B78002BC5D0BBE710BDC0464886084068
:103A8000040C002000200D4004200D40D928002007
:103A900058200D4010B50B4B1B6813F0030F10D0CE
:103AA000094B1B6813F0806FFAD1074B1B6813F0AA
:103AB000806FFAD0FFF758F8FFF744FF014B002260
:103AC0001A6010BD58200D4004200D4010B504466A
:103AD000E1B20020FFF7D0F8204610BD70B50546D2
:103AE000002402E0FFF7F2FF01342B1913B1285D27
:103AF0000028F7D10A20FFF7E9FF204670BDC04635
:103B000070B505460E46002404E0B44207D2FFF724
:103B1000DDFF01342B1913B1285D0028F5D12046B3
:103B200070BDC04610B51B4B0C461A781AB9013B44
:103B30001B78122B04D0631E03F12811002225E00C
:103B4000154B1B784B2BF6D14FEA510C0CF1FF3380
:103B500003F1281102E04B788354013201396245A8
:103B6000F9DB631E03F12812604402E0537800F889
:103B7000013C04F520132633013ACCEB030301305A
:103B80009A42F3D105E04B78835401320139A242C5
:103B9000F9DB10BD2B002800290028000020704709
:103BA0000120704710B50021044630220E20FFF797
:103BB00081FA00B284B1012C02D04FF000400BE03A
:103BC000031142F210725A43044BD3182A2293FB7A
:103BD000F2F303F5C240A83010BDC046200527FF10
:103BE000002070470120704710B5002104463022A4
:103BF0000F20FFF75FFA00B25CB1012C02D04FF04A
:103C0000004006E040F6F253434347F6F07293FB60
:103C1000F2F010BD0FB407B504AA52F8041B044813
:103C2000019200F095F8BDE80E4004B07047C04620
:103C3000D4000020084610B511460AB1FFF760FF16
:103C4000002010BD1FB5084C02900094039102ACF7
:103C5000114668461A46019400F07AF8029B002249
:103C60001A7004B010BDC0466D3C200070B54368AA
:103C700014469A4228BF5C1E05462246006809F099
:103C8000F1FA2B6800201B192B606B681B1B6B6003
:103C900070BDC0460CB407B504AB53F8042B0193B8
:103CA000FFF7D0FFBDE80E4002B0704710B50446E4
:103CB0000168002004E0303A0A2303FB00200131B0
:103CC0000A782F2A01D9392AF5D9216010BDC046BA
:103CD00010B504461846029B114613F4804F0C4A57
:103CE0000C4B14BF9C469446226809E001F00F0378
:103CF0001CF8033002F8013D0B0943EA007100098A
:103D000051EA0003F2D120682260801A10BDC0463B
:103D1000D8DB2000E9DB200070B505460C4607E043
:103D20002B686868094910229847034658B9103C27
:103D3000102CF5D80CB9234605E02B6868680349B8
:103D4000224698470346184670BDC046C8DB20008F
:103D50002DE9F04F91B00F9100210290079204914C
:103D600049E3531C0F930F9A13780BB1252BF8D10D
:103D7000A2420DD00299121B0B6848682146984751
:103D8000002840F03F830F9B049A1B1BD21804921B
:103D90000F9A1378002B00F03383511C0F91537846
:103DA000002B00F02D834FF000080B782B2B0DD04B
:103DB00004D8202B0DD0232B14D10DE02D2B02D0B5
:103DC000302B0FD10BE048F0010813E048F0060853
:103DD00010E048F002080DE048F008080AE048F05A
:103DE000100807E00F910A78A2F13103DBB2082B2B
:103DF00007D801E00131D8E70FA8FFF757FF05907A
:103E00000FE02A2A02D0002305930AE0079A131D27
:103E1000079310680028B8BF48F001084B1C0590B4
:103E20000F930F9A13782E2B16D1511C0F915278A5
:103E3000A2F13003DBB2092B04D80FA8FFF736FF3D
:103E400006900CE02A2A07D1079A4B1C0F93131DEA
:103E500007931268069202E04FF0FF3106910F9B24
:103E60001A786C2A0AD15A1C0F925B786C2B02D1FB
:103E700048F080080BE048F060080DE0682A0BD19C
:103E80005A1C0F925B78682B04D148F02008531C11
:103E90000F9301E048F040080F9B1A78652A45D03F
:103EA00019D8472A4BD00BD8452A42D03BD8412AB3
:103EB0004BD05BD8002A00F0A382252A56D153E0CC
:103EC000612A3FD002D8582A50D126E0632A3FD039
:103ED000642A4BD115E06F2A19D007D8672A2BD056
:103EE0001ED3692A0DD06E2A40D13AE0732A32D00F
:103EF00002D8702A3AD131E0752A05D0782A35D116
:103F000008E048F4245831E048F410682EE048F402
:103F100088582BE048F4C85828E048F4B24825E017
:103F200048F4007822E048F484481FE048F402484E
:103F30001CE048F4424819E048F4813816E048F49F
:103F4000A13813E048F4C13810E048F4E1380DE03E
:103F500048F4A0680AE048F4806807E048F4407834
:103F600004E048F4E06801E048F4C06801330F93CE
:103F700008F4E063B3F5806F00F07D8107D8B3F5F6
:103F8000807F1DD0B3F5407F40F03582B1E1B3F5BD
:103F9000C06F08D0B3F5E06F00F02782B3F5A06FD3
:103FA00040F02982F5E1029A954913685068012290
:103FB0009847002840F02682049B013304931AE2BC
:103FC000069A0EA9002A0E9102DA0123069301E057
:103FD00028F0100818F40052039208F0E00335D0DE
:103FE000402B0FD003D89BB1202B2AD104E0602BAB
:103FF0000ED0802B25D113E0079B1A1D079293F951
:10400000003009E0079B1A1D0792B3F9003003E066
:10401000079B1A1D07921B681A464FEAE27308E0D5
:10402000079B073323F0070303F108020792D3E944
:104030000023002B07DA564263EB43074FF0010AD7
:1040400033E00022002316461F460CE0402B14D01C
:1040500003D8BBB1202B04D108E0602B12D0802BF9
:1040600018D0002600274FF0000A1EE0079A131D03
:10407000079316784FF0000715E0079B1A1D07926B
:104080001B8803E0079B1A1D07921B681E464FF012
:10409000000708E0079B073323F0070303F108023A
:1040A0000792D3E90067DDF80CA008F4C053B3F51C
:1040B000805F08D0B3F5C05F38D0B3F5006F06D08D
:1040C0004FF0000B3AE00C463246394626E089466E
:1040D00034463D4610E0204629460A22002308F0D7
:1040E000FFFB303209F8012D204629460A22002321
:1040F00008F0F6FB04460D4654EA0503EBD10E9B8F
:10410000CDF83890C9EB030B18E002F00703303309
:1041100004F8013DD30843EA4172C90852EA010399
:10412000F3D10E9B0E94C4EB030B07E00EA83246AE
:104130003B46CDF80080FFF7CBFD8346069941F260
:10414000080359458ABF069A4FF00009CBEB0209D4
:1041500041F6080208EA02029A4205D1B9F1000FBD
:1041600008BF4FF001090FE041F608039A420BD156
:1041700056EA070308D0234A234B18F4804F14BF94
:104180001C461446022501E000242546039989B106
:10419000BAF1000F01D01D4C0BE008F00603022B12
:1041A00006D0062B1A4B08BF012508BF1C4601E0AC
:1041B000184C012509EB0B03059A5819824201D8C6
:1041C000002601E0059B1E1A18F001030CD118F01F
:1041D000100F02D0B1441E4606E002983146FFF7A8
:1041E0009BFD002840F00E8145B102992A460B68DC
:1041F000486821469847002840F004814C4615E065
:10420000FADB2000FCDB2000FFDB200002DC2000CA
:1042100004DC20003DDB2000029A7D4913685068D1
:1042200010229847002840F0ED80103C102CF3D865
:1042300044B1029922460B6848687549984700289E
:1042400040F0E080029A0E99136850685A469847E9
:10425000002840F0D78018F0010F06D002983146B0
:10426000FFF75AFD002840F0CD8004990BEB0103C5
:104270005B194B443AE0079A131D0793156815B96B
:104280000624644D06E02A4600E001321378002B34
:10429000FBD1541B069A002A02DB944228BF144625
:1042A000059BA34201D8002601E005990E1B18F0DA
:1042B000010F06D102983146FFF72EFD002840F08D
:1042C000A180029A29461368506822469847002820
:1042D00040F0988018F0010F06D002983146FFF7A1
:1042E0001BFD002840F08E80049963189E190496E7
:1042F00081E0079A10A8131D07930DF1350312688A
:1043000040F8083D0023CDF80080FFF7E1FC0146AE
:1043100030B90E9B01215A1E0E92302203F8012C57
:104320000E9ACD1C531E0E93782302F8013C0E9A70
:10433000531E0E93302302F8013C0E9A531E0E9327
:10434000232302F8013C059AAA4201D8002401E087
:10435000059B5C1B18F0010F05D102982146FFF761
:10436000DBFC00284ED102992A460B6848680E995A
:104370009847002846D118F0010F05D00298214631
:10438000FFF7CAFC00283DD1049AAB181C1904940D
:1043900031E0079B1A1D07921B688DF83830059B8A
:1043A000012B01D8002401E005994C1E18F0010FE3
:1043B00007D102982146FFF7AFFC18BB049A1219E7
:1043C0000492029901220B6848680EA99847C8B95F
:1043D00018F0010F04D002982146FFF79DFC88B920
:1043E000049A631CD218049205E0079B04991A1DD5
:1043F00007921B6819600F9C2378002B7FF4B3ACE5
:10440000049801E04FF0FF3011B0BDE8F08FC046D6
:104410000DDC200006DC200070B50546002402E01B
:10442000002100F07DFA285904340028F8D170BD2D
:1044300070B503880646154613B14A2B32D112E0F7
:104440001B4800F0D1FB044604E0201DA16800F0E9
:1044500089F92468002CF8D1164B01221A704FF00C
:104460004A03338001E0882901D001201EE0104872
:1044700000F0BAFB044612E0231D9D420ED10C4809
:10448000214600F0BBFB0C4A636915681360A36901
:104490000BB1E0699847084B1D60E0E72468002CE9
:1044A000EAD1DCE74FF000030380032070BDC04673
:1044B000100C0020DA280020200C002010B5074B3B
:1044C00004461B781BB1043000F0AAF801E0C36079
:1044D00003610348214600F091FB10BDDA2800205B
:1044E000100C002070B5084B06461B783BB1074CFA
:1044F000074B25680430236000F024F92560054847
:10450000314600F099FB70BDDA280020200C002015
:10451000DC000020100C002070B50C4E0546306801
:10452000EB610B4B6861AA611B780C463BB13468A8
:10453000084B281D336000F015F9346000E0A960D5
:104540000548294600F078FB70BDC046200C0020CD
:10455000DA280020DC000020100C002070B5084B89
:1045600006461B783BB1074C074B25680430236097
:1045700000F0F0F825600548314600F05DFB70BDA5
:10458000DA280020200C0020DC000020100C002085
:10459000054B10B500241C70044800F021FB0448B2
:1045A000214600F0BDF910BDDA280020100C0020D3
:1045B000DC0000207047C046C068D0F1010038BF61
:1045C000002070474368006818187047024B18684D
:1045D000003818BF01207047140C002010B50E4C95
:1045E0002268AAB1FEF770FA236819685A6852184F
:1045F000C0EB020E996807E04B680A6889689B184F
:104600001B1A9E4528BF9E460029F5D10EEB0002DD
:10461000024B1A6010BDC046140C0020180C00207C
:1046200010B50B4904460A68904203D183680B60B9
:104630000BE01A461AB19368A342FAD103E00023B3
:10464000A360E36010BDA3689360FFF7C7FFF6E7C0
:10465000140C002010B5024800F0DEF810BDC04672
:10466000EC00002070B50646008810B1592842D1F0
:1046700006E0234B18604FF05903338001203EE0E1
:10468000872915D11E4B186800E080680028F0D0FB
:10469000C3689342F9D01A4B186005E0CB68934287
:1046A0000ABF8B680846836081680029F6D1E2E77B
:1046B0008229E0D1124B00251C6819E0204600F049
:1046C000EBF998B1E0688821224600F07DF858B9EE
:1046D000E060A2680DB1AA6001E0094B1A600023F6
:1046E000A360FFF77BFFE5E7FFF7B4FF2546A4686B
:1046F000002CE3D1BFE74FF000033380032070BDEF
:10470000140C002010B50446FFF7A4FFE3685BB16A
:104710000A4B1A6806E0A24203D1094B1B68D3601A
:1047200009E09268002AF6D1054B044A1B68E36051
:104730001368A3601460FFF751FF10BD140C002034
:10474000200C002010B5044600F0B4F92046FFF715
:10475000D9FF10BD10B5044600F098F92046FFF7C8
:10476000D1FF10BD10B5044600F0AAF92046FFF7AE
:10477000C9FF10BD024B1878421C1A707047C04622
:10478000DE280020064B6FF075021A70054B76325A
:104790001A70054B1A70054B1A60054B1A6070476A
:1047A000DE280020DB280020DD280020240C00204B
:1047B000200C0020024B1A78024B18781018704712
:1047C000DF280020DD28002070B50F4E054696F842
:1047D00000C00846BCF1200F144601D1012011E0B1
:1047E0000A4B0B491A780B4B624402F01F021A70F5
:1047F0000C235343CA18C8540CF10103546095604C
:104800000020337070BDC046DD280020DB2800206A
:10481000280C0020E028002040B1837B013BDBB264
:10482000012B03D8024B0122C2731A707047C04695
:10483000DF280020807B003818BF01207047C04669
:104840002DE9F0411F4B04461F681F4B0E461B68A5
:10485000A34202D0002BFAD132E0002C30D0204607
:10486000FFF7E8FFD0B10023A373174B1D6807E0E3
:10487000AC4204D028468721224600F027F82D6854
:10488000002DF5D1A3684BB1B44207D00D4B04F114
:104890000C001C60A36883212A4698470A4A1168C5
:1048A0008C4209D12368136008E00B68A34202D14F
:1048B00023680B6002E019460029F6D1014B1F6006
:1048C000BDE8F081200C0020240C002070B5837B13
:1048D000044613F0010F0D4615D083689BB10A4BB7
:1048E000186002238373836800F10C009847023834
:1048F000012801D9832D04D120462146FFF7A0FFCE
:1049000001E00123A37370BD200C002070B5034C9F
:104910002568FFF7DBFF256070BDC046200C002036
:1049200010B50A4B0A461B68194600E00968814227
:104930000AD00029FAD10360044B18600123818159
:1049400083738131FFF7E2FF10BDC046240C0020C5
:1049500010B50A4A00231370094B1C680AE0E37B78
:104960003BB101230022A373E27320468221FFF7AB
:10497000ADFF2468002CF2D110BDC046DF28002016
:10498000240C00202DE9F041234B1B780BB1FFF7DD
:10499000DFFF224F3E78002E36D0214C0C232278A8
:1049A00020495343C818C95C1F4B01321970456830
:1049B0001E4B02F01F021D6080681D4B22701860A4
:1049C000731E3B70C8B91B4B1A681B4B1A600FE073
:1049D000114B1B780BB1FFF7BBFF134B164C19782B
:1049E000124B20681A68FFF771FF23681B68236069
:1049F000114B1B68002BEBD106E0812901D101236B
:104A000083732A46FFF762FF034B1A78034B18782B
:104A10001018BDE8F081C046DF280020DD28002006
:104A2000DB280020280C0020DC2800201C0C0020A3
:104A3000A80D0020240C0020AC0D002010B5074C60
:104A4000206848B100232360436881689847206844
:104A500010B10068FEF7C4F810BDC046B00D0020CC
:104A600010B5074A0C4611684360029B04608360DE
:104A7000106011B92046FEF7B3F8002010BDC04603
:104A8000B00D002010B5FEF77FF810BD0368426836
:104A90009B1803607047C04610B50446FEF714F833
:104AA0002368C3F101031B18606898422CBF0020E3
:104AB000012010BD10B50446FEF706F8206010BDB9
:104AC00010B541600446FDF7FFFF206010BDC046F1
:104AD00070B504880546672C09D0792C34D0002C99
:104AE0003AD1FFF747FE1F4B18701F4B1C601F4841
:104AF00000F036F9B0F1FF3F04D14FF067032B808F
:104B000002302DE00A28184907D00A687E2AEEDC18
:104B1000174B9854531C0B60E9E70B68144A0024A8
:104B2000D45401330B600F4B20461978FFF74CFE2D
:104B3000104B852118682246FFF746FE40B94FF01A
:104B400079032B8001300BE0852901D0012007E09B
:104B5000054B00221A60CAE74FF0000303800320D0
:104B600070BDC04681360020BC0D0020B40D002071
:104B700062290020200C002010B50548054980223C
:104B800000F0D0F804480021FFF7CAFE10BDC0466F
:104B9000B40D0020E1280020FC0000200D2810B5F5
:104BA000014601D1002014E00A4C23782BB90A48B1
:104BB00000F0C0F848B9012306E00A2805D10648EC
:104BC00000F0B8F808B1002323700448FFF724FE72
:104BD000012010BD61290020B40D0020FC00002040
:104BE000002303607047C04600687047006818B132
:104BF00003680BB11846FBE77047C046036883B1F2
:104C00001A4600230BE08A4207D111680BB90160F4
:104C100000E019600023136003E013461268002AC5
:104C2000F1D1704770B505460C46FFF7E7FF2B68DA
:104C300023602C6070BDC04670B505460C46FFF77A
:104C4000DDFF002323602846FFF7D0FF08B92C6062
:104C500000E0046070BDC0460368002001E01B68EE
:104C60000130002BFBD1704700B900E000687047AD
:104C7000064A136843F004031360054B18680433B5
:104C80001B6840EA032080B27047C04600700D40A8
:104C900014700D401C4A136823F00C0313601B4B67
:104CA00001221A60194B1B68012BFBD1184B0822FB
:104CB0001A60DB3203F505731A60164B1B6813F09C
:104CC000010FFAD000220DE0134B01321B6803F0F4
:104CD000010341EA03039BB25B00102A99B2F3D1AE
:104CE0000A4611B911460022EEE748F20303994241
:104CF000F8D00A4AC1F30F23136001F0FF031360D9
:104D0000074BEF221A60704700700D40A8200D403D
:104D100024860840648608409C86084014700D4034
:104D2000388808400023013A0160027143718371A1
:104D30007047C04690F805C083790279C3EB0C0335
:104D40001340934201D1002008E0036803F80C10DF
:104D50004379027901331340437101207047C04603
:104D60008179437990F804C05B1A13EA0C0F02D1E1
:104D70004FF0FF3006E003685A5C4B1C03EA0C035B
:104D8000837110467047C046024604480378012BE1
:104D900002D14378934200D000207047E3290020DD
:104DA000014B18687047C046C40D002070B51378D9
:104DB000064610460A7A83F002039A421DD14A7AC7
:104DC00043789A4219D18A7A83789A4215D1CA7A5D
:104DD000C3789A4211D10A7B03799A420DD14A7B5A
:104DE00043799A4209D18A7B83799A4205D1CA7B59
:104DF000C3799A4201D1032322E00B89B3B98B7A9C
:104E0000A3B9CB7AFF2B11D10B7BFE2B0ED14B7BA1
:104E100063B90D4D0224224628680E3108F022FAAB
:104E20002B681B19B4402B60E0B20BE0064C083134
:104E30002068082208F016FA23680833236001234B
:104E4000B340D8B270BDC046C80D00202DE9F04176
:104E5000140902F00F050F2C08BF102406461F4648
:104E60000F2D08BF102514B1224608F0FBF92B19AD
:104E70000F2B05DC30190021C3F1100208F09EFA57
:104E8000ADB10E4BC5F11000301819682A4608F074
:104E9000E9F9022D06D10A2C04D84FF0FF33F37242
:104EA000DB183373054A13685B19136004E01CB107
:104EB0003046394602F01AF9BDE8F081C80D0020ED
:104EC00010B50F4C0220A17904F046FAA379112BFA
:104ED00001D0062B05D1238D618D9942A8BF1946BB
:104EE00009E03A2B01D0002105E094F8282094F83D
:104EF000293043EA0221012004F02EFA10BDC046F9
:104F0000482B00202DE9F04F9B4B00241C709B4B3D
:104F100085B01C7004F0D8F9994B1860042004F097
:104F200023FA984B00B218609748FFF7B5FD18B107
:104F3000964B1C80964B1C80914B19680A784B78D5
:104F400043EA022402F0F802C02A03D0E02A904883
:104F50002ED111E08A78CB784FEA445943EA0226F1
:104F6000864A4FEA595913784FF0010A04331370F7
:104F7000002201929346B5E20B79804D0193CB78E4
:104F80008A784FEA445943EA02262B78048805338D
:104F90002B7004F0AFF92B784FEA5959E41A241812
:104FA0004C45C0F29C824FF0000A4FF0010B99E291
:104FB000764B4FF000094FF000021A800280CDF8C6
:104FC000049049464E46CA46CB4612E0BAF1000F5D
:104FD0000ED00F2004F0CEF901466E4803F056FFC4
:104FE00010B96A4B208018804FF0010A514600E04A
:104FF0000121674B1B88B3B1B9F1000F00F07A8231
:10500000624B1B884B4540F07582634B1B88B34253
:1050100040F070820F2004F0ADF901465D4803F0C6
:1050200035FFE8B966E209F1FF339BB240F2135253
:10503000934215D819B1BAF1000F00F05B82534BBF
:105040004FF48061A3F80090534B4F481E80FFF748
:1050500037FD0F2004F08EF901464E4803F020FF83
:10506000464C2178052900F0DA81454B1A68505CDE
:10507000551800F0E003602B40F0C0818B1C4748BE
:10508000D31803606F7812F8018017F0800F01D0F9
:105090000133036018F0100F08F0080530D13F4EBF
:1050A0003F4CCDB9316803220131601C08F0DAF8B9
:1050B000336813F8041B8A08336002F00F0343F0CF
:1050C00060032370637802F0300242EA811203F039
:1050D0000F031A4362702DE0602323703168A01C17
:1050E00011F8012B930803F0300302F00F02134371
:1050F0006370022208F0B6F833680333336019E0B6
:10510000274C95B9254802681378C3F3830343F00D
:105110006003237012F8011B65808B0803F03003D5
:1051200043EA81136370026004E06023237000236C
:105130006370638018F0040606D11848184A0368A3
:1051400013F8011B9171036018F00302144C03D093
:10515000144B9B5CE37105E0104B1A6812F8011BBD
:10516000E1711A6017F0400FC7F3011436D017F041
:10517000800F19D100201EE0E2290020ED29002037
:10518000D80D0020C40D0020D00D00205420002098
:10519000582000208236002052200020C80D002018
:1051A000DC0D002048DC2000844B1A78844B1B68FF
:1051B0009B189B7818093CB1FFF7E6FD814B1860FE
:1051C000002840F095812AE125467F4B0F201C5D89
:1051D00004F0D0F8294603467C4807E07C4B0F20BA
:1051E0001C5D04F0C7F87B49034678482246FFF768
:1051F0002DFE17F0080007F0030407F0040219D091
:10520000002A3FD102320DF10E00734908F02AF84E
:10521000631EDBB2012B06D8704B1A6812F8011B13
:105220008DF80F101A606E4B6E481A5D0DF10E016D
:10523000002325E0DAB117F0800F07D05F4B1A7812
:105240005F4B1B689B189B7803F00F00FFF79CFDDA
:105250005C4B05461860002800F0E1805A4B102096
:105260001C5D04F087F8A91C03465E4807E0584B14
:1052700010201C5D04F07EF856490346594822462A
:10528000FFF7E4FD584A137828331370002E72D0CC
:10529000524B1D682B7803F0F803F02B6BD1534B66
:1052A00011229A712E7806F0F303F03B032B00F2E3
:1052B000B680DFE803F002122639484C691C02224E
:1052C0004B4807F0CFFF21684A480331022207F01C
:1052D000C9FF2368053323603DE0444C691C02226A
:1052E00004F1280007F0BEFF3C490A68D378043275
:1052F000A3F580539BB21B0243F0F00363850A6061
:1053000029E06B783948A3F580539BB21B0243F028
:10531000F003038502222A30A91C07F0A3FF2F4ABD
:1053200013680433136016E06B7831491B09A3F549
:1053300075639BB21A0A42EA03220A806B78AA1CA0
:1053400003F00F03A3F575639BB21B0243F0F00358
:105350004B80224B1A6016F0040F08D11F4C2648D0
:105360002168022207F07EFF2368023323601E4A71
:10537000137808331370194B114A1B6812680F4DCC
:105380009B1A2B70194CB9F1000F0BD103F0B2FF2F
:10539000154B2A781B78283B9B1A1B181A1222716E
:1053A000637104E0A9F128021312237162710F4A9C
:1053B0009379112B33D19388938530E0ED29002028
:1053C000D80D0020C00D002061DC2000E40D00207D
:1053D0004CDC200050DC200046DC2000C80D002002
:1053E00052DC2000F40D0020E2290020DC0D00201A
:1053F000040E0020060E00200A0E0020412879D15C
:105400000131C9B221703D485118282207F02AFF06
:1054100023783B4A2833237013782833137003F022
:1054200069FF384C2378834264D803F063FF344E1D
:10543000019A3378277803EBC205C41BDFF8D080CC
:105440002A1940F214539A42C8F8004052D82E4B01
:105450002A4819684019C919224607F003FFB9F113
:10546000000F14D0BAF1000F04D0284B32781988FD
:1054700052181A802548BBF1000F02D0A0F8009006
:105480000BE0234B02881B689B18038005E0D8F8CB
:10549000002033789B181F4A13801C4B1A881AB1BE
:1054A0001C4B1B88934225D11A4C1B482288134958
:1054B00007F0D8FE2288194B1A804FF00003238092
:1054C000124B174C4FF000021A80236823B1FFF7EC
:1054D000F7FC23685B68984703F05AF80AE04FF03E
:1054E000000AD346094C2388002B7FF46FAD7FE57B
:1054F000851C6AE605B0BDE8F08FC046DC0D0020D3
:10550000E2290020ED290020D80D0020582000209D
:10551000F012002054200020482B0020342B0020C3
:10552000F412002010B5064802F0AEFF054A012330
:105530001370013B53706FF055039370D37010BD1F
:1055400091552000E329002010B5074C014623782F
:10555000012B06D1A01C082207F054FE08B92046F2
:1055600000E0002010BDC046E329002010B5014630
:10557000102003F011FF044B04489B68002198475A
:10558000FDF79EFC10BDC0467CD72000655C200066
:105590007B4B2DE9F74F00221A707A4B04461A70A4
:1055A00003F020FF03F090FE774B042118600920E0
:1055B00003F0D2FE754B1B680BB1FFF781FC684608
:1055C0000CB9734901E06846214603F069FC714B50
:1055D0006C4C1B886C493E2B40F22E820A686E4B45
:1055E000911C196023786D4DD218002393702846C2
:1055F000FFF7AAFF28B96A48FFF7A6FF08B90646D1
:1056000004E0654A8026136801331360DFF898814F
:1056100098F8010098F80010020942EA0112D2B28B
:10562000930843EA8213DAB210F00F0FD7B212D107
:10563000B8F802307BB911F00F0F04D110F0F00F61
:1056400001D178272CE0544A13681F701368702723
:105650000133136024E011F00F0F15D110F0F00F9B
:1056600012D14D4C22F03F03216800F00F0213438A
:105670000B7020684B490130022207F0F3FD2368CC
:105680006827033323600BE0434C4749206804221A
:1056900007F0E8FD23681F70236860270433236048
:1056A00098F80610112908BF47F0040717F0040FF7
:1056B00005D1394A1368197013680133136098F8DB
:1056C0000710402906D0FF2907D0012908D147F04B
:1056D00001070BE047F0020708E047F0030705E089
:1056E0002D4A136819701368013313602C4C2388FA
:1056F0008BB963887BB9A3886BB9E3885BB92389CD
:105700004BB963893BB9A3892BB9E3891BB946F02F
:105710004003DEB257E02248FFF716FF234B014655
:105720001860B0B1174B49781A78174B02321868D5
:10573000835C43EA01138354194904201C4AFFF790
:1057400035FB6FEA86636FEA9363184300F0FF0648
:1057500039E02378FE2B2DD16378802B2AD1B8F83D
:105760001A303BBBB8F81C3023BBB8F81E300BBB5B
:1057700004200B490E4AFFF719FB3043C6B222E062
:10578000E2290020ED290020D80D0020F41200208D
:1057900029DD2000342B0020C80D0020602B0020C4
:1057A000502B00204A2B0020482B0020C00D002049
:1057B000402B0020944C95492068102207F052FDA0
:1057C0002368103323602B78FF2B55D146F0080354
:1057D000DEB26B78022B18D16B88B3B9AB88A3B952
:1057E000EB8893B92B8983B96B8973B9AB8963B99A
:1057F000AB7B53B9844A98F82730116846F003060A
:105800000B7013680133136070E06B88002B64D158
:10581000AB88002B61D1EB88002B5ED12B89A3B91B
:105820006B8993B92B7B83B9774C46F002032268CE
:10583000DEB298F8193076491370206803220130DF
:1058400007F010FD236804334FE02B89002B44D16F
:10585000AB7A002B41D16C4C46F001032268DEB2DA
:1058600098F819306B49137020680522013007F051
:10587000F9FC2368063338E06748FFF765FE674B9D
:105880000246186098B1664B52781978654B023120
:105890001868435C134343546A4600205E49FFF78F
:1058A00085FA46F00403184300F0FF061EE02B784B
:1058B000FE2B12D16B78802B0FD1B8F81A3063B958
:1058C000B8F81C304BB9B8F81E3033B952496A46A3
:1058D000FFF76CFA3043C6B208E04B4C4E492068E3
:1058E000102207F0BFFC2368103323604E4A2823A0
:1058F000137098F80630112B76D14C4D4FF6F0719D
:105900002B881A0A42EA032290B200EA01014FF200
:10591000B003994220D16B881A0A42EA03224FF65B
:10592000F07302EA03038B4216D137496FF00C0380
:105930000A6813706A882888130A43EA0223020A55
:1059400042EA00220C6803EB021303F5AA636370BA
:105950000B6802330B603AE06B881B0203F47F4351
:10596000B3F5704F0FD1284C6FF00E0322682F490A
:10597000137020680222013007F074FC6B882268E3
:105980001B0AD37013E000F47F43B3F5704F1E4C35
:1059900010D122686FF00D0313702B8822681B0A48
:1059A0005370206822490230022207F05BFC236812
:1059B00004330BE022686FF00F03137020681B495B
:1059C0000130042207F04EFC2368053323600E4C9F
:1059D00002222068174907F045FC2368124A023367
:1059E00023601378083313700E490D480B68027852
:1059F0009F5402780B689B185E70034B0A681B6803
:105A00009B1A03702CE0C046C80D0020502B0020CC
:105A10006D2B00206B2B0020602B0020C00D002080
:105A2000ED290020D80D0020E2290020702B002055
:105A3000722B0020762B00200A68412313702078F7
:105A40000B680130C0B22070282218187B4907F07B
:105A500009FC23787A4A283323701378283313708B
:105A60006946102003F098FC764BDFF8F4A11B6820
:105A70009847754B30EA200428BF15245B69984786
:105A8000DFF8BCB1714FC4F17D04C0EB04099BF891
:105A90000050BAF800403978621BC1EB09039A4202
:105AA00040F3B28003F088FD7823B4FBF3F30133B5
:105AB000984240F3BF80664E3A783168DFF89C81A7
:105AC000081D07F01BFCBAF8003032686FEA834308
:105AD0006FEA9343C3F3072313703268BAF80030B8
